:020000040800F2
:1000000000C0002025EB0008BDE90008BFE900089A
:10001000C1E90008C3E90008C5E9000800000000C4
:10002000000000000000000000000000C7E9000818
:10003000C9E9000800000000CBE90008CDE900088C
:100040006DEB00086DEB00086DEB00086DEB000830
:100050006DEB00086DEB00086DEB00086DEB000820
:100060006DEB00086DEB00086DEB00086DEB000810
:100070006DEB0008D9E900086DEB0008DBE900082A
:10008000DDE900086DEB00086DEB00086DEB000882
:100090006DEB00086DEB00086DEB00086DEB0008E0
:1000A0006DEB00086DEB00086DEB00086DEB0008D0
:1000B0006DEB00086DEB00086DEB00086DEB0008C0
:1000C0006DEB00086DEB00086DEB00086DEB0008B0
:1000D0006DEB0008E1E90008F1E90008F3E9000828
:1000E0006DEB00086DEB00086DEB00086DEB000890
:1000F0006DEB00086DEB00086DEB00086DEB000880
:100100006DEB00086DEB00086DEB00086DEB00086F
:100110006DEB00086DEB00086DEB00086DEB00085F
:100120006DEB00086DEB00086DEB00086DEB00084F
:1001300000000000000000000000000000000000BF
:1001400000000000000000000000000000000000AF
:10015000000000000000000000000000000000009F
:10016000000000000000000000000000000000008F
:10017000000000000000000000000000000000007F
:10018000000000000000000000000000000000006F
:10019000000000000000000000000000000000005F
:1001A000000000000000000000000000000000004F
:1001B000000000000000000000000000000000003F
:1001C000000000000000000000000000000000002F
:1001D000000000000000000000000000000000001F
:0401E0005FF8E0F1F3
:1001E80010B5054C237833B9044B13B10448AFF369
:1001F80000800123237010BD100C002000000000B7
:100208004003010808B5034B1BB103490348AFF38A
:10021800008008BD00000000140C00204003010805
:1002280081F0004102E000BF83F0004330B54FEA9F
:1002380041044FEA430594EA050F08BF90EA020F0C
:100248001FBF54EA000C55EA020C7FEA645C7FEA9F
:10025800655C00F0E2804FEA5454D4EB5555B8BFC2
:100268006D420CDD2C4480EA020281EA030382EA33
:10027800000083EA010180EA020281EA0303362DC5
:1002880088BF30BD11F0004F4FEA01314FF4801C98
:100298004CEA113102D0404261EB410113F0004FAA
:1002A8004FEA03334CEA133302D0524263EB430361
:1002B80094EA050F00F0A780A4F10104D5F1200EFF
:1002C8000DDB02FA0EFC22FA05F2801841F100015A
:1002D80003FA0EF2801843FA05F359410EE0A5F12E
:1002E80020050EF1200E012A03FA0EFC28BF4CF05F
:1002F800020C43FA05F3C01851EBE37101F0004515
:1003080007D54FF0000EDCF1000C7EEB00006EEB21
:100318000101B1F5801F1BD3B1F5001F0CD34908AB
:100328005FEA30004FEA3C0C04F101044FEA445202
:1003380012F5800F80F09A80BCF1004F08BF5FEA89
:10034800500C50F1000041EB045141EA050130BD69
:100358005FEA4C0C404141EB010111F4801FA4F10C
:100368000104E9D191F0000F04BF01460020B1FA61
:1003780081F308BF2033A3F10B03B3F120020CDA99
:100388000C3208DD02F1140CC2F10C0201FA0CF077
:1003980021FA02F10CE002F11402D8BFC2F1200CDC
:1003A80001FA02F120FA0CFCDCBF41EA0C01904092
:1003B800E41AA2BF01EB0451294330BD6FEA0404DB
:1003C8001F3C1CDA0C340EDC04F11404C4F12002C6
:1003D80020FA04F001FA02F340EA030021FA04F3D8
:1003E80045EA030130BDC4F10C04C4F1200220FA2F
:1003F80002F001FA04F340EA0300294630BD21FA6D
:1004080004F0294630BD94F0000F83F4801306BF32
:1004180081F480110134013D4EE77FEA645C18BF26
:100428007FEA655C29D094EA050F08BF90EA020FBD
:1004380005D054EA000C04BF1946104630BD91EAB5
:10044800030F1EBF0021002030BD5FEA545C05D1B8
:100458004000494128BF41F0004130BD14F58004F7
:100468003CBF01F5801130BD01F0004545F0FE416B
:1004780041F470014FF0000030BD7FEA645C1ABFA0
:10048800194610467FEA655C1CBF0B46024650EAD7
:10049800013406BF52EA033591EA030F41F4002103
:1004A80030BD00BF90F0000F04BF0021704730B589
:1004B8004FF4806404F132044FF000054FF000015E
:1004C80050E700BF90F0000F04BF0021704730B51F
:1004D8004FF4806404F1320410F0004548BF4042F4
:1004E8004FF000013EE700BF42004FEAE2014FEA49
:1004F80031014FEA02701FBF12F07F4393F07F4F24
:1005080081F06051704732F07F4208BF704793F026
:100518007F4F04BF41F40021704730B54FF4607439
:1005280001F0004521F000411CE700BF50EA01023C
:1005380008BF704730B54FF000050AE050EA0102E5
:1005480008BF704730B511F0004502D5404261EB55
:1005580041014FF4806404F132045FEA915C3FF496
:10056800D8AE4FF003025FEADC0C18BF03325FEA33
:10057800DC0C18BF033202EBDC02C2F1200300FAE4
:1005880003FC20FA02F001FA03FE40EA0E0021FA09
:1005980002F11444BDE600BF70B54FF0FF0C4CF4F7
:1005A800E06C1CEA11541DBF1CEA135594EA0C0FA9
:1005B80095EA0C0F00F0DEF82C4481EA030621EAE4
:1005C8004C5123EA4C5350EA013518BF52EA03351F
:1005D80041F4801143F4801338D0A0FB02CE4FF0D1
:1005E8000005E1FB02E506F00042E0FB03E54FF001
:1005F8000006E1FB03569CF0000F18BF4EF0010EF9
:10060800A4F1FF04B6F5007F64F5407404D25FEAF4
:100618004E0E6D4146EB060642EAC62141EA5551A7
:100628004FEAC52040EA5E504FEACE2EB4F1FD0CE9
:1006380088BFBCF5E06F1ED8BEF1004F08BF5FEA67
:10064800500E50F1000041EB045170BD06F0004619
:1006580046EA010140EA020081EA0301B4EB5C04C6
:10066800C2BFD4EB0C0541EA045170BD41F48011BE
:100678004FF0000E013C00F3AB8014F1360FDEBFE3
:10068800002001F0004170BDC4F10004203C35DABF
:100698000C341BDC04F11404C4F1200500FA05F342
:1006A80020FA04F001FA05F240EA020001F00042E3
:1006B80021F0004110EBD37021FA04F642EB060159
:1006C8005EEA430E08BF20EAD37070BDC4F10C0483
:1006D800C4F1200500FA04F320FA05F001FA04F247
:1006E80040EA020001F0004110EBD37041F1000133
:1006F8005EEA430E08BF20EAD37070BDC4F120053E
:1007080000FA05F24EEA020E20FA04F301FA05F2A5
:1007180043EA020321FA04F001F0004121FA04F24D
:1007280020EA020000EBD3705EEA430E08BF20EA1D
:10073800D37070BD94F0000F0FD101F00046400057
:1007480041EB010111F4801F08BF013CF7D041EAD9
:10075800060195F0000F18BF704703F000465200DD
:1007680043EB030313F4801F08BF013DF7D043EAAE
:100778000603704794EA0C0F0CEA135518BF95EA64
:100788000C0F0CD050EA410618BF52EA4306D1D1EB
:1007980081EA030101F000414FF0000070BD50EA0A
:1007A800410606BF1046194652EA430619D094EA94
:1007B8000C0F02D150EA013613D195EA0C0F05D17E
:1007C80052EA03361CBF104619460AD181EA0301D2
:1007D80001F0004141F0FE4141F470014FF000008A
:1007E80070BD41F0FE4141F4780170BD70B54FF025
:1007F800FF0C4CF4E06C1CEA11541DBF1CEA1355A5
:1008080094EA0C0F95EA0C0F00F0A7F8A4EB050486
:1008180081EA030E52EA03354FEA013100F088807D
:100828004FEA03334FF0805545EA131343EA126346
:100838004FEA022245EA111545EA10654FEA0026FB
:100848000EF000419D4208BF964244F1FD0404F5B4
:10085800407402D25B084FEA3202B61A65EB030510
:100868005B084FEA32024FF480104FF4002CB6EBCD
:10087800020E75EB030E22BFB61A754640EA0C004D
:100888005B084FEA3202B6EB020E75EB030E22BF8D
:10089800B61A754640EA5C005B084FEA3202B6EBCE
:1008A800020E75EB030E22BFB61A754640EA9C008D
:1008B8005B084FEA3202B6EB020E75EB030E22BF5D
:1008C800B61A754640EADC0055EA060E18D04FEA1B
:1008D800051545EA16754FEA06164FEAC30343EABB
:1008E80052734FEAC2025FEA1C1CC0D111F4801F88
:1008F8000BD141EA00014FF000004FF0004CB6E781
:1009080011F4801F04BF01430020B4F1FD0C88BF1F
:10091800BCF5E06F3FF6AFAEB5EB030C04BFB6EB2A
:10092800020C5FEA500C50F1000041EB045170BD1D
:100938000EF0004E4EEA113114EB5C04C2BFD4EB4A
:100948000C0541EA045170BD41F480114FF0000ECE
:10095800013C90E645EA060E8DE60CEA135594EA4A
:100968000C0F08BF95EA0C0F3FF43BAF94EA0C0F4D
:100978000AD150EA01347FF434AF95EA0C0F7FF4C2
:1009880025AF104619462CE795EA0C0F06D152EA16
:1009980003353FF4FDAE1046194622E750EA4106FA
:1009A80018BF52EA43067FF4C5AE50EA41047FF40B
:1009B8000DAF52EA43057FF4EBAE12E74FF0FF3C70
:1009C80006E000BF4FF0010C02E000BF4FF0010C41
:1009D8004DF804CD4FEA410C7FEA6C5C4FEA430CBA
:1009E80018BF7FEA6C5C1BD001B050EA410C0CBF09
:1009F80052EA430C91EA030F02BF90EA020F00206B
:100A0800704710F1000F91EA030F58BF994208BFD1
:100A180090422CBFD8176FEAE37040F0010070478E
:100A28004FEA410C7FEA6C5C02D150EA013C07D1E5
:100A38004FEA430C7FEA6C5CD6D152EA033CD3D030
:100A48005DF8040B704700BF8446104662468C462A
:100A58001946634600E000BF01B5FFF7B7FF00285D
:100A680048BF10F1000F01BD4DF808EDFFF7F4FF86
:100A78000CBF012000205DF808FB00BF4DF808ED11
:100A8800FFF7EAFF34BF012000205DF808FB00BF34
:100A98004DF808EDFFF7E0FF94BF012000205DF856
:100AA80008FB00BF4DF808EDFFF7CEFF94BF01200B
:100AB80000205DF808FB00BF4DF808EDFFF7C4FF04
:100AC80034BF012000205DF808FB00BF4FEA410C4D
:100AD8007FEA6C5C02D150EA013C0AD14FEA430C30
:100AE8007FEA6C5C02D152EA033C02D14FF000006D
:100AF80070474FF0010070474A0011D212F50012FA
:100B080011D20DD56FF47873B3EB62520ED44FEA5D
:100B1800C12343F0004343EA505323FA02F07047DD
:100B28004FF00000704750EA013002D14FF0FF301B
:100B380070474FF0000070474FEA4102B2F1E043BE
:100B480024BFB3F5001CDCF1FE5C0DD901F0004CAC
:100B58004FEAC0024CEA5070B2F1004F40EB8300FC
:100B680008BF20F00100704711F0804F21D113F128
:100B78003872BCBF01F00040704741F480114FEA61
:100B88005252C2F11802C2F1200C10FA0CF320FAEA
:100B980002F018BF40F001004FEAC1234FEAD32307
:100BA80003FA0CFC40EA0C0023FA02F34FEA430371
:100BB800CCE77FEA625307D150EA01331EBF4FF0FA
:100BC800FE4040F44000704701F0004040F0FE4015
:100BD80040F40000704700BF80F0004002E000BF12
:100BE80081F0004142001FBF5FEA410392EA030F10
:100BF8007FEA226C7FEA236C6AD04FEA1262D2EB5A
:100C08001363C1BFD218414048404140B8BF5B425E
:100C1800192B88BF704710F0004F40F4000020F0F7
:100C28007F4018BF404211F0004F41F4000121F00D
:100C38007F4118BF494292EA030F3FD0A2F1010257
:100C480041FA03FC10EB0C00C3F1200301FA03F195
:100C580000F0004302D5494260EB4000B0F5000FB8
:100C680013D3B0F1807F06D340084FEA310102F177
:100C78000102FE2A51D2B1F1004F40EBC25008BF29
:100C880020F0010040EA03007047490040EB0000F3
:100C980010F4000FA2F10102EDD1B0FA80FCACF122
:100CA800080CB2EB0C0200FA0CF0AABF00EBC25021
:100CB80052421843BCBFD0401843704792F0000F0F
:100CC80081F4000106BF80F400000132013BB5E762
:100CD8004FEA41037FEA226C18BF7FEA236C21D0D8
:100CE80092EA030F04D092F0000F08BF084670473D
:100CF80090EA010F1CBF0020704712F07F4F04D10B
:100D0800400028BF40F00040704712F100723CBF1D
:100D180000F50000704700F0004343F0FE4040F447
:100D2800000070477FEA226216BF08467FEA236305
:100D38000146420206BF5FEA412390EA010F40F4F0
:100D4800800070474FF0000304E000BF10F000433C
:100D580048BF40425FEA000C08BF704743F0964323
:100D680001464FF000001CE050EA010208BF70473E
:100D78004FF000030AE000BF50EA010208BF7047C5
:100D880011F0004302D5404261EB41015FEA010CDA
:100D980002BF84460146002043F0B64308BFA3F1D2
:100DA8008053A3F50003BCFA8CF2083AA3EBC253B4
:100DB80010DB01FA02FC634400FA02FCC2F12002D3
:100DC800BCF1004F20FA02F243EB020008BF20F00A
:100DD8000100704702F1200201FA02FCC2F1200270
:100DE80050EA4C0021FA02F243EB020008BF20EA65
:100DF800DC7070474FF0FF0C1CEAD0521EBF1CEA93
:100E0800D15392EA0C0F93EA0C0F6FD01A4480EA80
:100E1800010C400218BF5FEA41211ED04FF0006369
:100E280043EA501043EA5111A0FB01310CF0004095
:100E3800B1F5000F3EBF490041EAD3715B0040EABB
:100E4800010062F17F02FD2A1DD8B3F1004F40EB8B
:100E5800C25008BF20F00100704790F0000F0CF05E
:100E6800004C08BF49024CEA502040EA51207F3A22
:100E7800C2BFD2F1FF0340EAC250704740F40000FD
:100E88004FF00003013A5DDC12F1190FDCBF00F0EE
:100E980000407047C2F10002410021FA02F1C2F19C
:100EA800200200FA02FC5FEA310040F1000053EA38
:100EB8004C0308BF20EADC70704792F0000F00F086
:100EC800004C02BF400010F4000F013AF9D040EA8C
:100ED8000C0093F0000F01F0004C02BF490011F420
:100EE800000F013BF9D041EA0C018FE70CEAD1531E
:100EF80092EA0C0F18BF93EA0C0F0AD030F0004C9E
:100F080018BF31F0004CD8D180EA010000F0004051
:100F1800704790F0000F17BF90F0004F084691F00F
:100F2800000F91F0004F14D092EA0C0F01D1420249
:100F38000FD193EA0C0F03D14B0218BF084608D112
:100F480080EA010000F0004040F0FE4040F400005C
:100F5800704740F0FE4040F4400070474FF0FF0CEF
:100F68001CEAD0521EBF1CEAD15392EA0C0F93EA36
:100F78000C0F69D0A2EB030280EA010C49024FEA88
:100F8800402037D04FF0805343EA111143EA101341
:100F98000CF000408B4238BF5B0042F17D024FF4F9
:100FA800000C8B4224BF5B1A40EA0C00B3EB510FD4
:100FB80024BFA3EB510340EA5C00B3EB910F24BFBD
:100FC800A3EB910340EA9C00B3EBD10F24BFA3EB42
:100FD800D10340EADC001B0118BF5FEA1C1CE0D10A
:100FE800FD2A3FF650AF8B4240EBC25008BF20F0BD
:100FF800010070470CF0004C4CEA50207F32C2BF11
:10100800D2F1FF0340EAC250704740F400004FF0AD
:101018000003013A37E792F0000F00F0004C02BFDE
:10102800400010F4000F013AF9D040EA0C0093F0A8
:10103800000F01F0004C02BF490011F4000F013B02
:10104800F9D041EA0C0195E70CEAD15392EA0C0F6A
:1010580008D142027FF47DAF93EA0C0F7FF470AFA2
:10106800084676E793EA0C0F04D14B023FF44CAFE5
:1010780008466EE730F0004C18BF31F0004CCAD17A
:1010880030F000427FF45CAF31F000437FF43CAFB6
:101098005FE700BF4FF0FF3C06E000BF4FF0010CD8
:1010A80002E000BF4FF0010C4DF804CD4FEA4002BA
:1010B8004FEA41037FEA226C18BF7FEA236C11D004
:1010C80001B052EA530C18BF90EA010F58BFB2EBB7
:1010D800030088BFC81738BF6FEAE17018BF40F037
:1010E800010070477FEA226C02D15FEA402C05D1EB
:1010F8007FEA236CE4D15FEA412CE1D05DF8040B70
:10110800704700BF844608466146FFE70FB5FFF702
:10111800C9FF002848BF10F1000F0FBD4DF808EDBA
:10112800FFF7F4FF0CBF012000205DF808FB00BFAB
:101138004DF808EDFFF7EAFF34BF012000205DF805
:1011480008FB00BF4DF808EDFFF7E0FF94BF012052
:1011580000205DF808FB00BF4DF808EDFFF7D2FF4F
:1011680094BF012000205DF808FB00BF4DF808ED92
:10117800FFF7C8FF34BF012000205DF808FB00BF5F
:101188004FEA4002B2F1FE4F0FD34FF09E03B3EB8C
:1011980012620DD94FEA002343F0004310F0004FCC
:1011A80023FA02F018BF404270474FF00000704722
:1011B80012F1610F01D1420205D110F0004008BFC1
:1011C8006FF0004070474FF00000704742000ED2A9
:1011D800B2F1FE4F0BD34FF09E03B3EB126209D46A
:1011E8004FEA002343F0004323FA02F070474FF020
:1011F8000000704712F1610F01D1420202D14FF095
:10120800FF3070474FF00000704700BF10B504462C
:101218000E4B18784FF47A73B3FBF0F30C4A10684E
:10122800B0FBF3F000F012FC68B90F2C01D90120D3
:101238000AE0002221464FF0FF3000F0B3FB034BD9
:101248005C60002000E0012010BD00BF000000200D
:10125800A00B002008B5074A136843F01003136079
:10126800032000F08DFB0020FFF7D0FF0DF054FBAA
:10127800002008BD00200240034A1168034B1B7878
:101288000B441360704700BF840C0020000000204E
:10129800014B1868704700BF840C002038B504461D
:1012A800FFF7F6FF0546B4F1FF3F02D0044B1B7869
:1012B8001C44FFF7EDFF401BA042FAD338BD00BF26
:1012C80000000020F0B583B005460C4600230193CA
:1012D800FFF7DEFF2B689A6812F4807F23D1064659
:1012E8005A6812F4807F03D1DB6A13F4700F24D09C
:1012F8004B4B1F68022001F087FBB7FBF0F02B680F
:101308001969484A11422FD1D96802F15C42114249
:101318002AD11969444A114239D1DA68434B1A4231
:1013280037D029273AE0AB6A43F02003AB620023A9
:1013380085F82430012003B0F0BD2B681B6813F03A
:10134800020F48D1B4F1FF3FF7D024B1FFF7A0FF57
:10135800801BA042F1D9AB6A43F00403AB620023BF
:1013680085F824300320E6E719692F4A114204D191
:10137800D96802F16E4211420DD019692C4A0A400F
:101388005AB9DA682A4B13405BB1FC2706E02927D3
:1013980004E0142702E0542700E0FC2707FB00F7CD
:1013A80004E05427FAE7019B01330193019BBB42F8
:1013B80011D2B4F1FF3FF6D024B1FFF769FF801BCB
:1013C800A042F0D9AB6A43F00403AB62002385F86E
:1013D80024300320AFE72B686FF012021A60AB6A63
:1013E80043F40073AB622B689B6803F46023B3F586
:1013F800602F01D000209EE72B7B6BB9AB6A23F4EA
:101408008073AB62AB6A13F4805F07D1AB6A43F0B9
:101418000103AB6200208EE700208CE700208AE7FA
:10142800A00B0020244992249224491292244900B6
:10143800499224000368D86C7047000030B482B029
:101448000023019390F82430012B00F08B80024692
:10145800012380F824304B68062B29D80568686B6F
:1014680003EB8303053B1F249C4020EA04000C681F
:1014780004FA03F303436B630B68092B38D9156827
:10148800E86803EB43031E3B07249C4020EA040062
:101498008C6804FA03F30343EB600B68103B012BE1
:1014A80034D90020002382F8243002B030BC7047C1
:1014B8000C2B0ED80568286B03EB8303233B1F24F2
:1014C8009C4020EA04000C6804FA03F303432B63EE
:1014D800D2E70568E86A03EB8303413B1F249C407D
:1014E80020EA04000C6804FA03F30343EB62C3E741
:1014F8001568286903EB430307249C4020EA04008D
:101508008C6804FA03F303432B61C6E71368164893
:10151800834205D0936A43F0200393620120C1E718
:10152800986810F4000F1BD1986840F40000986088
:101538000B68102B01D00020B4E70C4B1B680C493A
:10154800A1FB03139B0C03EB83035900019102E0F9
:10155800019B013B0193019B002BF9D10020A1E7DE
:1015680000209FE70220A0E700240140A00B0020F4
:1015780083DE1B4330B583B00023019303689A6868
:1015880012F0010F2ED19A6842F001029A60174BAF
:101598001B68174AA2FB03239B0C019302E0019BE3
:1015A800013B0193019B002BF9D10446FFF770FE24
:1015B800054623689B6813F0010F11D1FFF768FEF9
:1015C800401B0228F5D9A36A43F01003A362E36A1B
:1015D80043F00103E362002384F82430012002E091
:1015E800002000E0002003B030BD00BFA00B0020A9
:1015F80083DE1B4390F82430012B6AD010B50446D3
:10160800012380F82430FFF7B5FF024600285BD19C
:10161800A36A23F4407323F0010343F48073A362A5
:1016280023682D498B4227D0A16A21F48011A16239
:10163800596811F4806F05D0A16A21F4405141F432
:101648008051A162A16A11F4805F2BD0E16A21F078
:101658000601E162002184F824106FF0020119608C
:101668002368996801F46021B1F5602F1DD099684D
:1016780041F4801199602AE0A1F58061496811F46C
:10168800702FD1D0A16A41F48011A1621349496831
:1016980011F4806FD6D0A16A21F4405141F48051F1
:1016A800A162CFE70021E162D4E70B498B4204D065
:1016B800996841F4A001996009E0A1F58061496841
:1016C80011F4702FD3D1F3E7002384F824301046A7
:1016D80010BD022210467047002801400024014036
:1016E80038B503689A6812F0010F01D1002038BD9F
:1016F80004469A6822F001029A60FFF7C9FD054680
:1017080023689B6813F0010F0ED0FFF7C1FD401B43
:101718000228F5D9A36A43F01003A362E36A43F0F1
:101728000103E3620120E2E70020E0E7002800F07F
:101738008A8070B50446836A002B36D02046FFF7AE
:10174800CFFFA36A13F0100377D1002875D1A26ADE
:1017580022F4885222F0020242F00202A262626877
:1017680025683A498D4226D0E1690A43267B42EA38
:101778004602A168B1F5807F27D0012922D0217DBA
:10178800012925D0696821F469410B436B60216800
:101798008D682F4B2B4013438B60A368B3F5807F74
:1017A80027D0012B25D0002126E0C36280F8243001
:1017B80002F0ECFFC2E7E169B1F5402FD5D14FF453
:1017C8000021D2E74FF48073D9E74FF48073D6E74E
:1017D80036B9A169013943EA413343F40063D1E7DB
:1017E800A16A41F02001A162E16A41F00101E162D0
:1017F800C8E72369013B19052568EB6A23F47003E0
:101808000B43EB6223689968124B0B409A420BD04A
:10181800A36A23F0120343F01003A362E36A43F0C0
:101828000103E36201200DE00023E362A36A23F0D1
:10183800030343F00103A36204E0A36A43F0100327
:10184800A362012070BD0120704700BF003C014029
:10185800FDF7E1FFFE0E1FFF90F82430012B15D095
:1018680010B50446012380F82430FFF739FF0246FB
:1018780038B9A36A23F4885323F0010343F0010322
:10188800A362002384F82430104610BD02221046BB
:101898007047000070B582B00023019390F824309F
:1018A800012B68D00446012380F82430FFF718FF85
:1018B800054628B1002384F82430284602B070BDBC
:1018C800A36A23F4885323F0020343F00203A362BC
:1018D8002A4B1E68022001F097F8B6FBF0F0400092
:1018E800019002E0019B013B0193019B002BF9D180
:1018F8002046FFF73FFE2268936843F00803936091
:10190800FFF7C6FC064623689A6812F0080F0FD046
:10191800FFF7BEFC801B0A28F5D9A36A23F012033F
:1019280043F01003A362002384F824300125C4E7A0
:101938009A6842F004029A60FFF7AAFC06462368F8
:101948009B6813F0040F0FD0FFF7A2FC801B0A2836
:10195800F5D9A36A23F0120343F01003A36200230E
:1019680084F824300125A8E7A36A23F0030343F091
:101978000103A3629EE702259FE700BFA00B00209A
:10198800074AD36823F4E0631B041B0C000200F42D
:10199800E060184340F0BF6040F40030D06070470A
:1019A80000ED00E030B4174BDB68C3F30223C3F14A
:1019B8000704042C28BF04241D1D062D18D9033B39
:1019C8004FF0FF3505FA04F421EA0401994005FABD
:1019D80003F322EA0303194300280BDB0901C9B208
:1019E80000F1604000F5614080F8001330BC70479A
:1019F8000023E5E700F00F000901C9B2024B1954B2
:101A0800F4E700BF00ED00E014ED00E0002807DB7C
:101A180000F01F02400901239340024A42F8203097
:101A2800704700BF00E100E000280CDB00F01F0257
:101A38004009012393402030034A42F82030BFF385
:101A48004F8FBFF36F8F704700E100E00138B0F1AE
:101A5800807F0AD2064B5860064AF02182F823108C
:101A68000020986007221A6070470120704700BF65
:101A780010E000E000ED00E0042805D0054A1368F6
:101A880023F0040313607047024A136843F0040309
:101A98001360704710E000E0704708B5FFF7FCFFDF
:101AA80008BD70B110B50446037933B10223237120
:101AB800002020610123237110BD437103F000F859
:101AC800F4E7012070474379012B2CD030B401236F
:101AD8004371022202710468226801F01005AB40CC
:101AE8001343236089B90268136803F03C033C2B55
:101AF80006D00123037100234371184630BC704798
:101B0800536843F001035360F3E701680A6802F47D
:101B180070123C2303FA05F5AA42EAD14B6843F058
:101B280002034B60E5E70220704710B483B000243D
:101B380001940068019049B101990A441432019254
:101B4800019A1360002003B010BC704701990A4441
:101B580008320192F4E74379012B24D070B40125AF
:101B68004571022303710668336802F0100440F6D9
:101B7800FE72A24023EA02020B6849680B43A340A5
:101B88001343336001680B68C022A240D24313405C
:101B98000B60036819680A401A60057100234371D5
:101BA800184670BC704702207047000000283BD0E0
:101BB80010B4034601681D4A91422AD81C4A0A44B7
:101BC8001C49A1FB02121209920002641A4AC2635C
:101BD800022283F821201868016821F47F5121F03E
:101BE80030015A689C682243DC6822431C692243FE
:101BF8005C6922439C692243DC6922430A430260F0
:101C080000209863012283F8212083F8200010BC6B
:101C180070470A4A0A440749A1FB021212099200B6
:101C28000264074AC263D3E70120704707040240F1
:101C3800F8FFFDBFCDCCCCCC00000240F8FBFDBFC7
:101C48000004024008B590F82130022B03D0042389
:101C58008363012008BD0268136823F00E03136034
:101C68000268136823F00103136003684B4A934228
:101C78004ED9783A934224D01432934230D0143259
:101C880093422FD0143293422FD0143293422FD044
:101C9800143293422FD0143293422FD002F562723D
:101CA80093422ED0143293422DD0143293422CD02A
:101CB8001432934202D04FF4803203E04FF4805242
:101CC80000E00122364B5A60012380F821300023BE
:101CD80080F82030436B002B5ED098470020B9E78E
:101CE8001022EFE74FF48072ECE74FF48052E9E7F7
:101CF8004FF48032E6E74FF48012E3E74FF080724A
:101D0800E0E70122DEE71022DCE74FF48072D9E732
:101D1800244A934224D01432934225D01432934259
:101D280024D01432934224D01432934224D0143253
:101D3800934224D01432934224D002F56272934223
:101D480023D01432934222D01432934221D0143239
:101D5800934202D04FF4803203E04FF4805200E007
:101D68000122114B5A60AFE71022FAE74FF4807254
:101D7800F7E74FF48052F4E74FF48032F1E74FF47D
:101D88008012EEE74FF08072EBE70122E9E71022BC
:101D9800E7E74FF48072E4E700205BE78000024049
:101DA800000402400800024000000240044B0022E8
:101DB800DA61044A136943F0010313610180704733
:101DC800880C0020002002401A4BDB6813F0100F2B
:101DD80027D0194AD36943F00203D3611023154A67
:101DE800D26812F0040F06D01349CA6942F0010202
:101DF800CA6143F004030F4AD26912F0010F09D0F7
:101E08000D49CA6942F00402CA610A49CA6922F046
:101E18000102CA6140F20112934204D0054AD3601C
:101E280070470023DBE7034AD36923F00103D3613A
:101E3800704700BF00200240880C00200A4B1B6935
:101E480013F0800F0DD0084B084A5A6002F188320F
:101E58005A601B6913F0800F01D0012070470020E1
:101E680070470020704700BF0020024023016745EB
:101E7800034A136943F0800313610020704700BFD1
:101E88000020024038B50446FFF702FA0546174B12
:101E9800DB6813F0010F0AD0B4F1FF3FF7D00CB3A1
:101EA800FFF7F6F9401BA042F1D9032019E00F4BC8
:101EB800DB6813F0200F02D00C4B2022DA600B4BAA
:101EC800DB6813F0100F09D1084BDB6913F0010F21
:101ED80004D1064BDB6813F0040F05D0FFF774FF3D
:101EE800012038BD0320FCE70020FAE7002002406B
:101EF8002DE9F843234C247E012C41D01E46904600
:101F08000F4604461F4B01221A764CF25030FFF759
:101F1800B9FF034670BB012C29D0022C24D04FF006
:101F2800040900244C4525D22101C1F12002A1F168
:101F3800200328FA01F106FA02F2114326FA03F304
:101F4800194389B207EB4400FFF730FF4CF25030D9
:101F5800FFF798FF0C4B1D6925F001051D6103462D
:101F680040B90134E4B2DDE74FF00209D9E74FF098
:101F78000109D6E7034A002111761846BDE8F8831F
:101F88000223FAE7880C002000200240064B0022BA
:101F9800DA61064B1A6942F004021A611A6942F0C2
:101FA80040021A61704700BF880C002000200240E0
:101FB800064B0022DA61064B1A6942F002021A61E6
:101FC80058611A6942F040021A617047880C002073
:101FD80000200240264B1B7E012B46D070B50E46D2
:101FE8000446234B01221A760368022B20D04CF2B8
:101FF8005030FFF747FF90BB4FF0FF333360A568C1
:102008000122E168A36803EBC123AB4228D9284623
:10201800FFF7CEFF4CF25030FFF734FF154A136933
:1020280023F0020313610246B8B905F50065E8E735
:102038004CF25030FFF726FF08B1012210E00120D2
:10204800FFF7A4FF4CF25030FFF71CFF0246094986
:102058000B6923F004030B6102E0356000E0012204
:10206800034B00211976104670BD022210467047B6
:10207800880C002000200240F0B482B000263246CE
:10208800ABE0002D63D0012D00D1CE68FF2B72D8B4
:102098008446FF2B72D89500DCF800400F27AF402C
:1020A80024EA070406FA05F52C43CCF800404C68EE
:1020B80014F0805F00F09080664CA56945F001053A
:1020C800A561A46904F001040194019C9508AF1C62
:1020D800614C54F827C002F00304A7000F24BC4049
:1020E8002CEA040C5D4CA0424ED004F58064A0425A
:1020F80000F08C8004F58064A04200F0898004F52B
:102108008064A04200F0868004F58064A04200F05C
:10211800838004F58064A04234D0062435E0504F13
:10212800BD4214D00BD94F4FBD4210D007F58037B0
:10213800BD420CD0A7F58017BD42A7D107E0A7F58F
:102148008017BD4203D007F58037BD429ED18D6808
:102158007DB1012D08D04461082697E7CE6808367E
:1021680094E7CE680C3691E7046108268EE70026CE
:102178008CE704268AE700F1040C8AE7A2F1080537
:10218800AD0089E7052400E00024BC4044EA0C04C3
:102198000235314F47F825404C6814F4803F3DD054
:1021A800314D2C681C432C604C6814F4003F3BD024
:1021B8002D4D6C681C436C604C6814F4801F39D03A
:1021C800294DAC681C43AC604C6814F4001F37D030
:1021D800254DEC682343EB6001320B6833FA02F4B7
:1021E80034D00124944023409C42F5D14D68122DEF
:1021F800B7D094D8022DB1D07FF643AF032DB6D017
:10220800112D7FF443AFCE6804363FE70124BCE7C5
:102218000224BAE70324B8E70424B6E7124D2C6871
:1022280024EA03042C60BFE70F4D6C6824EA03041A
:102238006C60C1E70C4DAC6824EA0304AC60C3E7EA
:10224800094DEC6824EA0303EB60C5E702B0F0BC73
:10225800704700BF00100240000001400008014024
:102268000000211000003110000401408368194269
:1022780001D1002070470120704712B9090401619B
:102288007047016170470000014B01221A607047D6
:1022980020000E4282B0084B1B68084AA2FB0323A9
:1022A8005B0A00FB03F0019000BF019B5A1E0192DC
:1022B800002BF9D102B07047A00B0020D34D62105B
:1022C800002800F0F58170B582B00446036813F069
:1022D800010F2CD0AB4B5B6803F00C03042B1DD013
:1022E800A84B5B6803F00C03082B12D06368B3F5A6
:1022F800803F41D0002B55D103F1804303F50433CF
:102308001A6822F480321A601A6822F480221A604D
:1023180037E09C4B5B6813F4803FE7D0994B1B6810
:1023280013F4003F03D06368002B00F0C3812368D7
:1023380013F0020F76D0934B5B6813F00C0F5FD04D
:10234800904B5B6803F00C03082B54D02369002BD7
:1023580000F08A808C4B01221A60FEF799FF05462F
:10236800884B1B6813F0020F75D1FEF791FF401BD5
:102378000228F5D90320A0E1824A136843F4803388
:102388001360636843B3FEF783FF05467D4B1B6804
:1023980013F4003FCBD1FEF77BFF401B6428F5D92F
:1023A80003208AE1B3F5A02F09D0764B1A6822F4EE
:1023B80080321A601A6822F480221A60E1E703F179
:1023C8008043A3F53C331A6842F480221A601A68E5
:1023D80042F480321A60D4E7FEF75AFF0546694B8B
:1023E8001B6813F4003FA2D0FEF752FF401B64287D
:1023F800F5D9032061E1634B5B6813F4803FA5D1F5
:10240800604B1B6813F0020F04D02369012B01D025
:10241800012052E15B4A136823F0F803616943EA3B
:10242800C1031360236813F0080F32D0A369002B8F
:102438005BD0564B01221A60FEF72AFF0546514B26
:102448005B6A13F0020F21D1FEF722FF401B02281E
:10245800F5D9032031E14B4A136823F0F803616989
:1024680043EAC1031360DDE7474B00221A60FEF719
:102478000FFF0546434B1B6813F0020FD2D0FEF73F
:1024880007FF401B0228F5D9032016E10120FFF7BA
:1024980001FF236813F0040F00F09880394BDB69C3
:1024A80013F0805F33D1374BDA6942F08052DA613A
:1024B800DB6903F080530193019B0125344B1B68B2
:1024C80013F4807F25D0E368012B36D0002B4CD144
:1024D80003F1804303F504331A6A22F001021A62F9
:1024E8001A6A22F004021A622CE0284B00221A60B1
:1024F800FEF7CEFE0546234B5B6A13F0020FC8D0E9
:10250800FEF7C6FE401B0228F5D90320D5E00025BA
:10251800D4E71F4A136843F480731360FEF7B8FECC
:1025280006461B4B1B6813F4807FCCD1FEF7B0FE28
:10253800801B6428F5D90320BFE0124A136A43F0D0
:1025480001031362E3687BB3FEF7A2FE06460D4B58
:102558001B6A13F0020F38D1FEF79AFE801B41F276
:1025680088339842F3D90320A7E0052B12D0054BF6
:102578001A6A22F001021A621A6A22F004021A6226
:10258800E0E700BF001002400000424280044242DF
:10259800007000404C4B1A6A42F004021A621A6A30
:1025A80042F001021A62CDE7FEF772FE0646464B7C
:1025B8001B6A13F0020F08D0FEF76AFE801B41F277
:1025C80088339842F3D9032077E0E5B9E369002B13
:1025D80072D03D4A526802F00C02082A56D0022BEB
:1025E80017D03A4B00221A60FEF752FE0446364BCB
:1025F8001B6813F0007F47D0FEF74AFE001B022835
:10260800F5D9032059E0304AD36923F08053D361C8
:10261800DCE72E4B00221A60FEF73AFE05462A4BED
:102628001B6813F0007F06D0FEF732FE401B02281D
:10263800F5D9032041E0236AB3F5803F1AD0224937
:102648004B6823F47413226A606A024313434B6095
:102658001E4B01221A60FEF71BFE04461A4B1B682C
:1026680013F0007F0ED1FEF713FE001B0228F5D9E8
:10267800032022E0144A536823F40033A1680B4373
:102688005360DCE7002018E0002016E0012B16D08C
:102698000D4B5B6803F48031226A914201D001201E
:1026A8000BE003F47013626A93420AD0012004E03D
:1026B80001207047012000E0002002B070BD012019
:1026C800FBE70020F9E700BF00100240600042422B
:1026D80010B487B0164C94E80F000DF1180C0CE9F3
:1026E8000F00238AADF80430124B5B6803F00C022C
:1026F800082A1AD1C3F38342624412F8102C13F447
:10270800803F05D10C4800FB02F007B010BC7047B1
:10271800084B5B68C3F34043634413F8143C074811
:1027280000FB02F0B0FBF3F0EFE70448EDE700BF71
:10273800580301080010024000093D0000127A0009
:10274800002800F0A38070B50446524B1B6803F0C4
:1027580007038B420CD24F4A136823F007030B433D
:102768001360136803F007038B4201D0012070BD8A
:10277800236813F0020F17D013F0040F04D0464A51
:10278800536843F4E0635360236813F0080F04D0E0
:10279800414A536843F4605353603F4A536823F0F7
:1027A800F003A068034353600D46236813F0010F3C
:1027B80031D06368012B20D0022B25D0364A12680D
:1027C80012F0020F64D034494A6822F0030213431E
:1027D8004B60FEF75DFD06462F4B5B6803F00C036C
:1027E8006268B3EB820F16D0FEF752FD801B41F2F0
:1027F80088339842F0D90320B9E7274A126812F4BF
:10280800003FE0D10120B2E7234A126812F0007FAE
:10281800D9D10120ABE71F4B1B6803F00703AB427C
:102828000CD91C4A136823F007032B431360136861
:1028380003F00703AB4201D0012098E7236813F0A7
:10284800040F06D0144A536823F4E063E1680B438D
:102858005360236813F0080F07D00F4A536823F416
:102868006053216943EAC1035360FFF731FF0A4B04
:102878005B68C3F30313094AD35CD840084B18605C
:10288800084B1868FEF7C2FC002070E7012070476B
:1028980001206CE70020024000100240DC0701081C
:1028A800A00B002004000020014B1868704700BFEF
:1028B800A00B002008B5FFF7F7FF044B5B68C3F3D4
:1028C8000223034AD35CD84008BD00BF0010024071
:1028D800EC07010808B5FFF7E7FF044B5B68C3F393
:1028E800C223034AD35CD84008BD00BF0010024091
:1028F800EC07010870B582B00446036813F0010FB5
:1029080034D03E4BDB6913F0805F48D13B4BDA692A
:1029180042F08052DA61DB6903F080530193019B36
:102928000125374B1B6813F4807F3AD0334B1B6A61
:1029380013F4407311D0626802F440729A420CD0CA
:102948002E4A136A23F440702E4901260E60002691
:102958000E60106213F0010F37D1284A136A23F46E
:10296800407361680B431362002D3FD1236813F055
:10297800020F06D0214A536823F44043A1680B4351
:102988005360236813F0100F35D01C4A536823F4A2
:10299800800361690B435360002002B070BD0025BD
:1029A800BFE7174A136843F480731360FEF770FC9F
:1029B8000646134B1B6813F4807FB7D1FEF768FCFB
:1029C800801B6428F5D90320E7E7FEF761FC06467B
:1029D8000A4B1B6A13F0020FBFD1FEF759FC801B8C
:1029E80041F288339842F3D90320D6E7D36923F01C
:1029F8008053D361BAE70020CFE700BF0010024040
:102A0800007000404004424230B587B005463F4C54
:102A180094E80F000DF1180C0CE90F00238AADF8AB
:102A28000430681E0F2866D8DFE800F0395A65328E
:102A3800656565366565656565656508344B5A681D
:102A48001B6813F0807F58D0C2F3834306A90B4458
:102A580013F8100C12F4803F16D02D4B5B68C3F3AB
:102A680040430B4413F8142C2A4BB3FBF2F300FB3E
:102A780003F0274B5B6813F4800F0BD14000264B03
:102A8800A3FB0030400805E0244B03FB00F0F0E70F
:102A9800FFF71EFE07B030BDFFF71AFEFAE71C4B22
:102AA8001B6A40F202321A40B2F5817F27D003F444
:102AB8004073B3F5007F04D0B3F5407F09D0002000
:102AC800E8E7134A526A12F0020FF5D049F640407F
:102AD800E0E70F4B1B6813F4003F13D10020D9E740
:102AE800FFF7F8FE0A4B5B68C3F3813301335B00E1
:102AF800B0FBF3F0CEE70020CCE70020CAE74FF4A4
:102B08000040C7E74FF22440C4E700BF6C03010848
:102B18000010024000127A00ABAAAAAA00093D00E0
:102B280030B402689469A5B2D369916988B28542C4
:102B380005D0D06980B240EA014030BC704798B2F5
:102B480040EA0440F9E70368186A5B6A9BB243EA03
:102B580000407047002302E001330A38C0B2092858
:102B6800FAD81B01DBB218437047030903EB830350
:102B78005A0000F00F001044C0B2704710F0030F65
:102B880016D10D4BA3FB00235B09642202FB130340
:102B98009BB27BB9084BA3FB0023DB094FF4C87237
:102BA80002FB130080B208B1002070470120704773
:102BB80000207047012070471F85EB5110B400F5C5
:102BC800FA64022920D901EB4103C1EBC3011F4B71
:102BD800A3FB011302EB5303234403EB94031C4AA6
:102BE800A2FB0424A3EB541303EBD41302331948B8
:102BF800A0FB03201A1A00EB52008008C0EBC000AB
:102C0800181AC0B210BC704701EB4103C1EBC301F5
:102C18000E4BA3FB011302EB5303234400F2CF70C6
:102C280003EB90030A4AA2FB0020A3EB501303EB2B
:102C3800D01304330748A0FB03201A1A00EB5200F4
:102C48008008C0EBC000181ADBE700BF398EE338F4
:102C58001F85EB51254992242DE9F84307468846FC
:102C680090F80F90447B857B002603E01E2D1FD82B
:102C78000135013646453DD2012CF7D0032CF5D05D
:102C8800052CF3D0072CF1D0082CEFD00A2CEDD06E
:102C98000C2CEBD0042C15D0062C13D0092C11D0F9
:102CA8000B2C0FD0022CE4D11B2D12D80135E0E7F4
:102CB8000C2C02D001340125DBE709F101090125BB
:102CC8002C46D6E71D2D01D80135D2E70134012560
:102CD800CFE71C2D04D01D2DCBD101340125C8E729
:102CE8001FFA89F0FFF74AFF08B10135C1E701343F
:102CF8000125BEE787F80F90E1B27973EAB2BA739B
:102D08004846FFF75BFF3873BDE8F88338B50446DB
:102D1800FEF7BEFA054623685A6812F0200F07D15D
:102D2800FEF7B6FA401BB0F57A7FF4D9032004E029
:102D38005A6842F010025A60002038BD38B504467F
:102D48000268536823F010035360FEF7A1FA0546A2
:102D580023685B6813F0200F07D1FEF799FA401B30
:102D6800B0F57A7FF4D9032000E0002038BD38B5EB
:102D780005460C46FFF7CAFF10B10123184638BDB7
:102D88002B68220C9A612B68A4B2DC612846FFF7F5
:102D9800D5FF03460028F1D00123EFE738B50546F3
:102DA8000C46FFF7B3FF10B10123184638BD2B6856
:102DB800220C1A622B68A4B25C622846FFF7BEFF99
:102DC80003460028F1D00123EFE770B5002857D05B
:102DD8000446002956D0037C012B55D00E4601230A
:102DE800037402234374BAB90D784B78C3EB031309
:102DF8009A004FF4616303FB05258B781D4429462F
:102E08002046FFF7B4FF0646C8B1042363740023C5
:102E180023740126304670BD0878FFF7A6FE4FF4EC
:102E2800616505FB00F57078FFF79FFEC0EB0010A9
:102E380083001D44B078FFF798FE0544DFE7226859
:102E4800536823F0050353602046FFF77CFEB0F17A
:102E5800FF3F01D0854204D8012363740023237403
:102E6800D8E700F5A83101F5C0712046FFF796FFB5
:102E78000028F1D004236374002323740126C9E7D2
:102E88000126C7E70126C5E70226C3E7002875D053
:102E98002DE9F0470546002972D003685B6813F0F6
:102EA800040F02D00120BDE8F08716460C46FFF754
:102EB80037FE0746364AA2FB0032D20A4FF4616059
:102EC80000FB1270334BA3FB00135B096370C3EB69
:102ED80003139900411AA170172A10D82270002EE6
:102EE80054D02078FFF736FE20706078FFF732FE66
:102EF8006070A078FFF72EFEA0700020D3E7264B65
:102F0800A3FB07384FEA1848244BA3FB02131B09FD
:102F180003EB4303D900531A23702846FFF713FE27
:102F28008246B0F1FF3F03D087421CD2A0EB070ACC
:102F3800194BA3FB07394FEA1949194B03FB1979B8
:102F480049462846FFF713FFE0B9BAF1FF3F0DD015
:102F58000AEB09012846FFF721FFA8B94146284690
:102F6800FFF77AFEBBE74FF0FF3AE1E75146284604
:102F7800FFF714FF0028F1D0012094E701207047E3
:102F8800012090E701208EE701208CE700208AE7E6
:102F9800C5B3A2918988888807452EC2ABAAAAAA78
:102FA8008051010000285DD038B5044600295BD067
:102FB800037C012B5AD00D4601230374022343746A
:102FC800D2B9CB78C3734B7843738B788373A27B66
:102FD800617BE07BFFF7F2FD207328702046FFF746
:102FE8009FFD234BA3FB0023B3F5484F11D20123C8
:102FF80063740020207438BDC878FFF7B6FDE0730D
:103008006878FFF7B2FD6073A878FFF7AEFDA0738C
:10301800DDE7184DA5FB00352D0C174B03FB1505F7
:1030280029462046FFF7A3FE28B104236374002332
:1030380023740120DFE72046FFF785FDB0F1FF3F4D
:10304800D5D08542D3D900F5A83101F5C071204605
:10305800FFF7A4FE0028CAD0042363740023237456
:103068000120C8E7012070470120C4E70220C2E719
:10307800C5B3A29107452EC2805101002DE9F04148
:1030880082B00023ADF804308DF8063000B3054651
:1030980001B317460C461A4601A9FFF7F7FE064684
:1030A800E8B92B7B2370E87BE07095F80D8084F8F5
:1030B8000180AD7BA57077B1FFF74CFDE07040460D
:1030C800FFF748FD60702846FFF744FDA07002E056
:1030D800012600E00126304602B0BDE8F081012655
:1030E800F9E7C0B138B504460268536823F008030D
:1030F8005360FEF7CDF8054623685B6813F0080FA8
:1031080007D1FEF7C5F8401BB0F57A7FF4D9032044
:1031180000E0002038BD01207047000000285AD088
:1031280010B50446437C53B1022363742046FFF76D
:10313800D8FF40B1042363740123184610BD0374FB
:103148000BF078FBF0E72046FFF7E0FD002830D1D0
:103158002268536823F007035360A36823B11F4A0A
:10316800136B23F0010313631C4AD36A23F46073BF
:10317800A1680B43D3626268B2F1FF3F1DD021689A
:103188008B6823F00F0343EA12438B602168CB68F6
:103198001B0C1B0492B21343CB602046FFF7CEFDF5
:1031A8000346A0B90022E27301226273A27362741B
:1031B800C3E7042363740123BFE70120FFF724FC5E
:1031C80008B1421EDBE7042363740123B5E7042337
:1031D80063740123B1E7012318467047006C00406F
:1031E800890001F1804101F5D84192B20A60704727
:1031F800890001F1804101F5D841086880B2704723
:10320800F8B505460F4616461C463BE02CB1FEF7BE
:103218003FF8069BC01AA04234D32A68536823F0AB
:10322800E00353606B68B3F5827F0BD0AB6AB3F5EC
:10323800005F14D0012385F85130002385F8503001
:10324800032027E0AB68B3F5004F02D0B3F5806FD9
:10325800ECD12A68136823F040031360E6E72A6874
:10326800136823F400531B041B0C13602A681368AB
:1032780043F400531360DDE70123B34209D0B4F1EE
:10328800FF3FC3D12B689B6837EA0303F4D00023C0
:10329800F3E70020F8BD10B582B0044600920B4653
:1032A80000228021FFF7ACFF034610B9184602B090
:1032B80010BD636D43F0200363650323F6E72DE932
:1032C800F04385B099460C9D90F85030012B00F0E2
:1032D800108104460F461646012380F85030FDF74A
:1032E800D7FF804694F85130DBB26268012B15D0C5
:1032F800B2F5827F0AD00223012284F851200022ED
:1033080084F85020184605B0BDE8F083A268002A6A
:1033180040F0E780042B01D00223EDE7002F00F0F6
:10332800E280002E00F0E180B9F1000F00F0DF80AC
:1033380094F85130DBB2012B2BD000236365A663D0
:10334800A4F83E90A4F83C902763A4F83690A4F81B
:1033580034902364636423681A6812F0400F03D121
:103368001A6842F040021A60E368B3F5006F14D09F
:1033780063681BB1E38E9BB2012B07D1236817F852
:10338800012B1A73E38E013B9BB2E3864FF00109D0
:1033980061E0052384F85130CFE763681BB1E38E01
:1033A8009BB2012B07D1236837F8022BDA60E38E32
:1033B800013B9BB2E3864FF0010913E0E38F9BB218
:1033C8006BB123689A6812F0010F08D0DB6826F801
:1033D800023BE38F013B9BB2E3874FF00109B5F154
:1033E800FF3F1CD1E38E9BB21BB9E38F9BB2002B2E
:1033F80055D0B9F1000FE1D0E38E9BB2002BDDD0A0
:1034080023689A6812F0020FD8D037F8022BDA60D6
:10341800E38E013B9BB2E3864FF00009CEE7FDF750
:1034280037FFA0EB0800A842DCD3032364E7E38F4F
:103438009BB26BB123689A6812F0010F08D0DB6861
:103448003370E38F013B9BB2E38701364FF00109EC
:10345800B5F1FF3F1BD1E38E9BB213B9E38F9BB24B
:10346800EBB1B9F1000FE2D0E38E9BB2002BDED0B6
:1034780023689A6812F0020FD9D03A781A73E38E4B
:10348800013B9BB2E38601374FF00009CFE7FDF718
:10349800FFFEA0EB0800A842DDD303232CE7CDF8FC
:1034A80000802B46012202212046FFF7A9FE08B121
:1034B800032321E7424629462046FFF7ECFE034650
:1034C80018B120236365012316E7A268002A7FF458
:1034D80013AF03922268D168039192680392039A0A
:1034E8000AE7022308E7012306E7012304E701238B
:1034F80002E7022306E700283CD010B50446002363
:10350800836290F85130002B31D0022384F8513077
:103518002268136823F0400313606368A2681343AA
:10352800E26813432269134362691343A26902F4F0
:1035380000721343E2691343226A1343A16A2268A3
:103548000B431360638B03F00403616A22680B4327
:1035580053602368E26A1A612268D36923F400631E
:10356800D36100206065012384F8513010BD0BF051
:10357800A5F9CAE7012070470268D36823F490735D
:10358800D3600268536923F001035361202380F854
:103598003A30704790F83930DBB2212B2AD1836852
:1035A800B3F5805F16D0036A5A1C02621A78036862
:1035B8005A60C38C013B9BB2C384EBB90268D368E1
:1035C80023F08003D3600268D36843F04003D360DC
:1035D80000207047036A1B880268C3F3080353601E
:1035E80003691BB9036A02330362E2E7036A013322
:1035F8000362DEE7022070470020704738B50446B2
:103608000268136923F44053C1680B43136183684C
:103618000269134342691A430168CB6823F4B05323
:1036280023F00C031343CB600268536923F44073FF
:1036380081690B4353610268214B9A421FD0FFF7FF
:1036480039F900EB800000EB800063689B00B0FB59
:10365800F3F01C4DA5FB00325109642202FB110254
:1036680013013233A5FB03235B0903F0F00202EBDD
:10367800011203F00F03216813448B6038BDFFF774
:1036880029F900EB800000EB800063689B00B0FB29
:10369800F3F00C4DA5FB00325109642202FB110224
:1036A80013013233A5FB03235B0903F0F00202EB9D
:1036B800011203F00F03216813448B60DEE700BF9B
:1036C800003801401F85EB512DE9F04105460F46B2
:1036D80016469846069C2B681B6837EA03030CBFFE
:1036E80001230023B3421DD1B4F1FF3FF3D02CB125
:1036F800FDF7CEFDA0EB0800A042ECD92A68D368FC
:1037080023F4D073D3602A68536923F0010353610B
:10371800202385F8393085F83A30002385F8383089
:10372800032000E00020BDE8F08158B310B504463E
:1037380090F839300BB3242384F839302268D368E1
:1037480023F40053D3602046FFF758FF226813691B
:1037580023F4904313612268536923F02A035361C9
:103768002268D36843F40053D3600020E063202329
:1037780084F8393084F83A3010BD80F838300BF0CE
:1037880079F9D8E7012070472DE9F04182B01E464B
:1037980090F83930DBB2202B55D104460D469046BF
:1037A800002955D0002A55D090F83830012B53D035
:1037B800012380F838300023C363212380F839308F
:1037C800FDF766FD0746A4F82480A4F8268010E0DB
:1037D80000963B46002280212046FFF775FF00280F
:1037E8003CD12B882268C3F3080353602369C3B90B
:1037F8000235E38C9BB2B3B1E38C013B9BB2E3840B
:10380800A368B3F5805FE3D000963B460022802191
:103818002046FFF759FF18BB2A7823685A600135FC
:10382800E7E70135E5E700963B46002240212046C0
:10383800FFF74AFF0346A8B9202284F8392000225E
:1038480084F8382000E00223184602B0BDE8F08171
:103858000123F9E70123F7E70223F5E70323F3E759
:103868000323F1E70323EFE7704708B50168CB6846
:1038780023F04003CB60202380F83930FFF7F4FFB2
:10388800002008BD704708B590F83A30DBB2222B0B
:1038980045D18368B3F5805F0ED0036903BB036825
:1038A8005A68836A591C81621A70C38D013B9BB2A6
:1038B800C385F3B1002033E0826A036943B9036822
:1038C8005B68C3F308031380836A02338362ECE7FF
:1038D80003685B68DBB21380836A01338362E4E7C1
:1038E80003685B68826A511C816203F07F0313706E
:1038F800DBE70268D36823F02003D3600268D3684B
:1039080023F48073D3600268536923F00103536181
:10391800202380F83A30FFF7B5FF002000E00220AE
:1039280008BD704710B5044602681368D16852692B
:1039380013F00F0005D113F0200F02D011F0200F63
:1039480053D1002867D012F0010202D111F4907F00
:1039580061D013F0010F06D011F4807F03D0E06B23
:1039680040F00100E06313F0040F04D01AB1E06BDB
:1039780040F00200E06313F0020F04D01AB1E06BCC
:1039880040F00400E06313F0080F04D01AB1E26BB2
:1039980042F00802E263E26B002A48D013F0200FDD
:1039A80002D011F0200F24D123685B6903F0400393
:1039B800E26B12F0080F00D13BB32046FFF7DCFDA5
:1039C80023685A6912F0400F1BD05A6922F040024E
:1039D8005A61636B8BB11A4A5A63606BFEF732F90E
:1039E80028B3606B436B984721E02046FFF74BFFF5
:1039F8001DE02046FFF747FFD6E72046FFF791FF77
:103A080015E02046FFF78DFF11E02046FFF789FFFC
:103A18000023E3630BE013F0800F02D011F0800F56
:103A280006D113F0400F02D011F0400F04D110BDA1
:103A38002046FFF7AFFDFAE72046FFF716FFF6E747
:103A48004D3A000808B5406A0023C385C384FFF7D0
:103A580068FF08BD70B588B0244B9A6942F004022B
:103A68009A619A6902F004020192019A9A6942F0F5
:103A780008029A619A6902F008020292029A9A6907
:103A880042F010029A619B6903F010030393039BB1
:103A98000023069340F60743049301240594032565
:103AA8000795134E04A93046FEF7E6FA22464FF46E
:103AB80080613046FEF7E1FB22464FF40061304654
:103AC800FEF7DBFBC02304930594079504A9094876
:103AD800FEF7D2FA10230493059407950DEB030122
:103AE8000548FEF7C9FA08B070BD00BF00100240D3
:103AF800000C0140000801400010014010B51428D6
:103B080037D8DFE810F01500370059007B009D001A
:103B1800BF00E10003012501470169018B01AD01E7
:103B2800D301F501170239025B027D029F02C1022F
:103B3800DC4C002201212046FEF79FFB00220221D7
:103B48002046FEF79AFB002204212046FEF795FB4B
:103B5800A4F58064002240212046FEF78EFB012256
:103B680080212046FEF789FB00221021CE48FEF76F
:103B780084FB10BDCB4C002201212046FEF77DFBC3
:103B8800002202212046FEF778FB0122042120466C
:103B9800FEF773FBA4F58064002240212046FEF75F
:103BA8006CFB012280212046FEF767FB00221021D2
:103BB800BD48FEF762FBDCE7BA4C012211462046FD
:103BC800FEF75BFB002202212046FEF756FB00228F
:103BD80004212046FEF751FBA4F580640022402111
:103BE8002046FEF74AFB012280212046FEF745FBCE
:103BF80000221021AC48FEF740FBBAE7A94C00228E
:103C080001212046FEF739FB012202212046FEF75A
:103C180034FB002204212046FEF72FFBA4F5806424
:103C2800002240212046FEF728FB01228021204661
:103C3800FEF723FB002210219B48FEF71EFB98E7A6
:103C4800984C012211462046FEF717FB012202215B
:103C58002046FEF712FB002204212046FEF70DFB4A
:103C6800A4F58064002240212046FEF706FB0122CD
:103C780080212046FEF701FB002210218A48FEF72A
:103C8800FCFA76E7874C002201212046FEF7F5FA78
:103C9800012202212046FEF7F0FA012204212046E3
:103CA800FEF7EBFAA4F58064002240212046FEF7D7
:103CB800E4FA012280212046FEF7DFFA00221021D3
:103CC8007948FEF7DAFA54E7764C01221146204685
:103CD800FEF7D3FA012202212046FEF7CEFA01228E
:103CE80004212046FEF7C9FAA4F580640022402189
:103CF8002046FEF7C2FA012280212046FEF7BDFACF
:103D0800002210216848FEF7B8FA32E7654C002215
:103D180001212046FEF7B1FA002202212046FEF7D3
:103D2800ACFA002204212046FEF7A7FAA4F5806425
:103D3800012240212046FEF7A0FA002280212046D9
:103D4800FEF79BFA012210215748FEF796FA10E772
:103D5800544C002201212046FEF78FFA002202214E
:103D68002046FEF78AFA012204212046FEF785FA4A
:103D7800A4F58064002240212046FEF77EFA002246
:103D880080212046FEF779FA012210214648FEF7E5
:103D980074FAEEE6434C012211462046FEF76DFA0E
:103DA800002202212046FEF768FA0022042120465C
:103DB800FEF763FAA4F58064012240212046FEF74D
:103DC8005CFA002280212046FEF757FA00221021D3
:103DD8003548FEF752FACCE6324C00220121204643
:103DE800FEF74BFA012202212046FEF746FA00228E
:103DF80004212046FEF741FAA4F580640022402100
:103E08002046FEF73AFA002280212046FEF735FACE
:103E1800002210212448FEF730FAAAE6214C01229C
:103E280011462046FEF729FA012202212046FEF714
:103E380024FA002204212046FEF71FFAA4F5806424
:103E4800012240212046FEF718FA0122802120464F
:103E5800FEF713FA002210211348FEF70EFA88E63F
:103E6800104C002201212046FEF707FA0122022108
:103E78002046FEF702FA012204212046FEF7FDF94A
:103E8800A4F58064002240212046FEF7F6F90122BD
:103E980080212046FEF7F1F9012210210248FEF7A1
:103EA800ECF966E6000C014000100140874C012245
:103EB80011462046FEF7E1F9012202212046FEF7CD
:103EC800DCF9012204212046FEF7D7F9A4F5806425
:103ED800012240212046FEF7D0F901228021204608
:103EE800FEF7CBF9012210217948FEF7C6F940E622
:103EF800764C002201212046FEF7BFF9002202215C
:103F08002046FEF7BAF9002204212046FEF7B5F94B
:103F1800A4F58064002240212046FEF7AEF9002275
:103F280080212046FEF7A9F9012210216848FEF7F2
:103F3800A4F91EE6654C002201212046FEF79DF9F2
:103F4800002202212046FEF798F90122042120468A
:103F5800FEF793F9A4F58064012240212046FEF77C
:103F68008CF9002280212046FEF787F900221021D3
:103F78005748FEF782F9FCE5544C012211462046C9
:103F8800FEF77BF9002202212046FEF776F900228F
:103F980004212046FEF771F9A4F58064002240212F
:103FA8002046FEF76AF9002280212046FEF765F9CF
:103FB800002210214648FEF760F9DAE5434C00225A
:103FC80001212046FEF759F9012202212046FEF779
:103FD80054F9002204212046FEF74FF9A4F5806425
:103FE800012240212046FEF748F90122802120467F
:103FF800FEF743F9002210213548FEF73EF9B8E5EF
:10400800324C012211462046FEF737F901220221DF
:104018002046FEF732F9002204212046FEF72DF94A
:10402800A4F58064002240212046FEF726F90122EB
:1040380080212046FEF721F9012210212448FEF7AD
:104048001CF996E5214C002201212046FEF715F9BE
:10405800012202212046FEF710F901220421204600
:10406800FEF70BF9A4F58064012240212046FEF7F3
:1040780004F9012280212046FEF7FFF801221021D1
:104088001348FEF7FAF874E5104C01221146204651
:10409800FEF7F3F8012202212046FEF7EEF801228E
:1040A80004212046FEF7E9F8A4F5806401224021A6
:1040B8002046FEF7E2F8012280212046FEF7DDF8CF
:1040C800012210210248FEF7D8F852E5000C014001
:1040D80000100140F0B585B0164C00224FF4806105
:1040E8002046FEF7CAF8002602964FF400670097AC
:1040F800012501950323039369462046FDF7BCFF7C
:104108002A4639462046FEF7B8F8022000F0FAFCA5
:104118002A464FF480612046FEF7AFF8022000F0EF
:10412800F1FC32464FF480612046FEF7A6F805B050
:10413800F0BD00BF000C0140F0B585B00025029528
:104148004FF4006600960127019703230393114C4F
:1041580069462046FDF790FF3A4631462046FEF76D
:104168008CF83A464FF480612046FEF786F8042022
:1041780000F0C8FC2A4631462046FEF77EF80420A7
:1041880000F0C0FC2A464FF480612046FEF775F81F
:1041980005B0F0BD000C0140F0B585B000270297CE
:1041A8004FF4006500950126019603230393114CF3
:1041B80069462046FDF760FF3A464FF48061204685
:1041C800FEF75BF83A4629462046FEF756F80420E3
:1041D80000F098FC32464FF480612046FEF74DF817
:1041E800324629462046FEF748F8042000F08AFCAB
:1041F80005B0F0BD000C014070B584B000240194F6
:1042080002944FF40066009603230393154D694604
:104218002846FDF731FF012231462846FEF72DF8E2
:10422800012000F06FFC01224FF480612846FEF760
:1042380024F8012000F066FC4FF400610948FEF7FD
:1042480015F830B10134E4B2FA2CF5D9FFF7A4FF20
:1042580005E000224FF480610248FEF70EF804B032
:1042680070BD00BF000C014070B584B00546002445
:1042780002944FF4006300930123019303230393F3
:104288001C4E69463046FDF7F7FE22464FF4806122
:104298003046FDF7F2FF1FE001224FF40061154898
:1042A800FDF7EBFF6D00EDB2022000F02BFC114E84
:1042B80001224FF480613046FDF7DFFF022000F055
:1042C80021FC00224FF480613046FDF7D6FF022022
:1042D80000F018FC0134E4B2072C08D8EB09DBD154
:1042E80000224FF400610348FDF7C7FFDAE704B086
:1042F80070BD00BF000C014070B584B00025019569
:1043080002954FF40063009303230393694616480C
:10431800FDF7B2FE2C4604E0012000F0F3FB013566
:10432800EDB2072D1BD8104E00224FF480613046A5
:10433800FDF7A3FF022000F0E5FB01224FF48061A6
:104348003046FDF79AFF6400E4B24FF4006130464E
:10435800FDF78CFF0028DFD00134E4B2DCE7FFF77B
:10436800B9FE204604B070BD000C014038B50546C2
:104378000C46FFF7E1FE1A20FFF776FFFFF73CFF38
:104388002846FFF771FFFFF737FFE0B2FFF76CFF32
:10439800FFF732FFFFF700FF38BD10B50446FFF7FF
:1043A800CBFE1A20FFF760FFFFF726FFB020FFF7CC
:1043B8005BFFFFF721FF2046FFF756FFFFF71CFFC3
:1043C800FFF7EAFE10BD10B5FFF7E7FFFFF7B4FEF1
:1043D8001B20FFF749FFFFF70FFFFFF78DFF04468C
:1043E800FFF778FEFFF7D8FE204610BD2DE9F04F05
:1043F80083B0054601914FF0000B1AE00134A4B2D6
:10440800A9EB0A03013B9C420FDA55F82470661C9D
:1044180055F8268041463846FCF7A8FE0028EDD01E
:1044280045F8248045F82670E8E70BF1010B1FFAE0
:104438008BFBDA46019B9946013B9B4501DA002438
:10444800DEE703B0BDE8F08F70B50546104C0146B5
:104458002046FFF7CBFF21686E08AD08741BA4B295
:104468000BE00B4B53F82400FCF7BCFB4FF07C51DE
:10447800FCF7C0FC01460134A4B273199C42F0DB7E
:10448800044B1A78044B53F82200FCF7B3FC70BDB8
:10449800B80C0020000300200800002000000000E5
:1044A80010B50C46FCF720F807A3D3E90023FCF766
:1044B80073F8FCF721FB030C2370030A6370A070E8
:1044C80010BD00BFAFF30080FCA9F1D24D6240409F
:1044D8002DE9F04F89B08246894693461F461E78DB
:1044E80016F0010F08D15E4B019306F0F00806F0B4
:1044F8000F06822500240AE04FF07E530193F4E76B
:104508001AF80410E8B2FFF731FF01350134022C24
:10451800F6DD8525002406E019F80410E8B2FFF757
:1045280025FF01350134022CF6DD8825002406E03C
:104538001BF80410E8B2FFF719FF01350134012C0C
:10454800F6DD46F0B0018020FFF710FF7978812072
:10455800FFF70CFF46F010018020FFF707FF0A2045
:10456800FCF79CFE46F020018020FFF7FFFE4FF08D
:10457800000A28E00798049B03FB03F300FB0030C4
:10458800FBF7A0FF0AF08CFCFCF7D6FA04460146BC
:104598000198FCF72FFC0AF1010501464FF07E5007
:1045A800FCF7DCFC2F4B43F82A008F20FFF70BFFAA
:1045B80010F0040F50D1B8F1300F48D0397880206E
:1045C800FFF7D4FEAA468F20FFF7FDFE10F0020F7A
:1045D800F9D09420FFF7F7FE81469520FFF7F3FE08
:1045E80000EB0929CDF81C909620FFF7ECFE064653
:1045F8009720FFF7E8FE00EB062604964846FBF7EF
:1046080061FF04460D463046FBF75CFF22462B4609
:104618000AF0AAFAFCF790FA134B43F82A00B9F506
:10462800004F08DB89F4FF4989F07F0909F1010986
:1046380089F400430793B6F5004F9BDB86F4FF46E9
:1046480086F07F06013686F40046049692E73978AC
:104658008020FFF78BFEB5E7204609B0BDE8F08F54
:104668000000A040B80C0020A80C002070B584B051
:104678000E4615461C4603A9FFF712FF02A930464D
:10468800FFF70EFF2B0A8DF804308DF80550BDF8A2
:1046980020301C43BDF82430234343F008031A0A92
:1046A8008DF800208DF801306B4601AA02A903A8F5
:1046B800FFF70EFF002004B070BD000010B582B0F7
:1046C8000E4CE069FCF742FB4FF4405301934FF462
:1046D80080730093002304220021FFF7C7FF084BD3
:1046E8001B7804EB8304246A0420FFF7ADFE01461F
:1046F8002046FCF77FFB02B010BD00BF0800002079
:104708000003002000B585B01D481E4B03604FF420
:104718008073836000220273012303754FF46021C4
:10472800C1614260836102230361FCF7FFFFC0B9E6
:104738000A230193012302930723039301A9104835
:10474800FCF77CFE90B90B23019302230293072305
:10475800039301A90A48FCF771FE60B905B05DF83A
:1047680004FB4421084809F031FFE1E74D210648E0
:1047780009F02CFFE7E75621034809F027FFEDE78A
:10478800E00C002000240140F407010802680D4BEA
:104798009A4200D0704700B587B003F56C439A6918
:1047A80042F400729A619B6903F400730193019BC0
:1047B80003230293039302A90348FDF75DFC07B0A6
:1047C8005DF804FB002401400010014000B585B0ED
:1047D8008DF80E006FF07F43009301230DF10F0257
:1047E8000DF10E010548FEF76AFD10B1FF238DF8A3
:1047F8000F309DF80F0005B05DF804FBC8200020BD
:1048080070B506460C461546002240211048FDF7B3
:1048180034FD0320FFF7DAFFC4F30740FFF7D6FFA4
:10482800C4F30720FFF7D2FFE0B2FFF7CFFF05E0A0
:10483800FF20FFF7CBFF06F8010B25466B1E9CB245
:10484800002DF5D1012240210148FDF716FD70BD6C
:104858000014014010B5074C002240212046FDF706
:104868000CFD0620FFF7B2FF012240212046FDF78C
:1048780004FD10BD0014014008B50022402109487C
:10488800FDF7FBFC0520FFF7A1FFFF20FFF79EFFC8
:1048980010F0010FF9D1012240210248FDF7EDFC8B
:1048A80008BD00BF0014014038B50446FFF7D2FF29
:1048B800FFF7E2FF0D4D002240212846FDF7DDFC01
:1048C8002020FFF783FFC4F30740FFF77FFFC4F3FF
:1048D8000720FFF77BFFE0B2FFF778FF01224021B6
:1048E8002846FDF7CAFCFFF7C7FF38BD0014014092
:1048F80070B506460C461546FFF7ACFF002240216E
:104908001348FDF7BAFC0220FFF760FFC4F3074025
:10491800FFF75CFFC4F30720FFF758FFE0B2FFF78B
:1049280055FFB5F5807F07D94FF4807504E016F878
:10493800010BFFF74BFF25466B1E9CB2002DF6D1ED
:10494800012240210248FDF798FCFFF795FF70BD52
:10495800001401402DE9F84305460C469046CBB2B9
:10496800110ADBB971B92146FFF7C2FF14E04FF411
:10497800807221462846FFF7BBFF04F5807405F5D1
:10498800807531464B1EDEB20029F0D15FFA88F2FD
:1049980021462846FFF7ACFFBDE8F8835F42FFB227
:1049A800D6B289B9B7420BD23344DEB23A46214671
:1049B800FFF79EFF32463919E819FFF799FFEBE731
:1049C8002146FFF795FFE7E7BAB2A8EB0206B6B2B1
:1049D8004FEA16285FFA86F92146FFF789FF3C441B
:1049E8003D440AE04FF4807221462846FFF780FFD5
:1049F80004F5807405F58075B84608F1FF33DFB219
:104A0800B8F1000FEED1B9F1000FC5D0F2B22146CE
:104A18002846FFF76DFFBFE710B5074C002240217D
:104A28002046FDF72AFCB920FFF7D0FE01224021DD
:104A38002046FDF722FC10BD0014014010B5074CBC
:104A4800002240212046FDF718FCAB20FFF7BEFEF0
:104A5800012240212046FDF710FC10BD0014014042
:104A680000B583B01348144B0360FDF71AF888B9F2
:104A78003C2300930022019269460E48FDF76BF82B
:104A880068B9102269460B48FDF765F860B903B0AC
:104A98005DF804FB3D21094809F098FDE8E7462147
:104AA800064809F093FDECE74D21044809F08EFD16
:104AB800EDE700BF680D00200074004004080108FD
:104AC80002680E4B9A4200D0704700B587B003F5D4
:104AD800CE33DA6942F00052DA61DB6903F0005341
:104AE8000193019B302302930323039302A90448F3
:104AF800FDF7C2FA07B05DF804FB00BF0074004080
:104B08000008014082B001900FE04FF4617013E09B
:104B180001F58C3101F5A071104B9B689A42FBDAC4
:104B28009942F9DB019B1B1A0193019B9BB1019BE5
:104B3800B3F5617FE9D80198084B9A686FF047018F
:104B480001FB00210029E3DB044B9B689A42E9DD65
:104B58009942F9DDE6E702B0704700BF10E000E0D7
:104B68002DE9F04F8BB0644B9A6942F040029A618C
:104B78009A6902F040020092009A9A6942F0100283
:104B88009A619A6902F010020192019A9A6942F0B8
:104B980004029A619A6902F004020292029A9A69DE
:104BA80042F008029A619A6902F008020392039A95
:104BB8009A6942F020029A619A6902F020020492EE
:104BC800049A9A6942F004029A619B6903F004030B
:104BD8000593059BDFF82C81002241F244514046A1
:104BE800FDF74BFB454F00224FF400513846FDF7C7
:104BF80044FBDFF814A1002280215046FDF73DFB5D
:104C0800DFF8089100224FF400714846FDF735FBA4
:104C180041F25C53069301250795022408940994F0
:104C280006A94046FDF728FA4AF6A023069303266C
:104C3800079606A94046FDF71FFA44F203030693B8
:104C48004FF0000BCDF81CB0089506A94046FDF7BB
:104C580013FA4FF40053069307950894099406A98C
:104C68003846FDF709FA41F6E7730693079606A951
:104C78003846FDF701FA0823069307950894099426
:104C880006A93846FDF7F8F94FF60113069307967B
:104C980006A95046FDF7F0F906940795089409947B
:104CA80006A95046FDF7E8F941F27F0306930796F7
:104CB80006A94846FDF7E0F94FF6BF730693079635
:104CC8000F4E06A93046FDF7D7F9402306930795FE
:104CD8000894099406A93046FDF7CEF94FF460739D
:104CE8000693CDF81CB0089506A94846FDF7C4F907
:104CF8000BB0BDE8F08F00BF00100240001001406B
:104D0800001401400018014000080140000C014057
:104D1800F8B5164C00272770102363700126A6707B
:104D28001923E370124D324621462846FEF73AF918
:104D380010490F704F708F7032462846FEF745F8BD
:104D480043F2F12231462846FEF74AFAE278032177
:104D58002846FEF745FA627804212846FEF740FA0D
:104D6800A27805212846FEF73BFAF8BDF418002082
:104D7800540D00203C1200202DE9F04F8FB007ACF5
:104D88005A4D0FCD0FC495E8070084E807000024AA
:104D98005EE0DFF86CB1DBF80000A0F5FA70FBF715
:104DA800D5FF06A9FFF77CFB4FF07E5705A93846CB
:104DB800FFF776FB4FF0000A8DF810A008268DF853
:104DC80011604FF031098DF80C908DF80D600EAB25
:104DD80003EB840353F81C1C3846FCF7BFF801901A
:104DE80003AB04AA05A906A8FFF772FB01460198C0
:104DF800FCF7B4F801460098FBF7F4FE0090DBF8E6
:104E0800000000F5FA70FBF7A1FF06A9FFF748FBC1
:104E180005A93846FFF744FB8DF810A08DF81160FE
:104E28008DF80C908DF80D6003AB04AA05A906A8AF
:104E3800FFF74EFB01460198FCF790F80146404603
:104E4800FBF7D0FE80460135EDB20CE00134E4B248
:104E5800062C48D8E01DC0B2FEF750FE00254FF0E2
:104E68000008CDF80080002D93D02846FBF76EFF90
:104E7800064601460098FCF771F80546314640465B
:104E8800FCF76CF801460020FCF768F8064629464E
:104E98000020FCF763F801463046FBF7A1FE4FF00F
:104EA8007C51FBF7A7FF01462846FBF79BFE01460E
:104EB8004FF07E50FCF752F805460021FCF756F9F2
:104EC8000028C3D00A4E56F824102846FCF746F8A6
:104ED800084B43F8240046F82450074B1A68074B40
:104EE80043F82420B2E70FB0BDE8F08F8003010833
:104EF8000800002028000020A80C00202C0C00200E
:104F08002400002030B587B0FCF798FF00230293F7
:104F1800A14C04940125059506A941F8143D02A861
:104F2800FDF758F89922002321462846FCF7E0FFB0
:104F38009A4C227800239A490220FCF7D9FF994914
:104F48006068FBF757FFFCF71BF90246C317964941
:104F58000220FCF7CDFF9349A068FBF74BFFFCF755
:104F68000FF90246C31791490220FCF7C1FF8D498A
:104F7800E068FBF73FFFFCF703F90246C3178C49CB
:104F88000220FCF7B5FF87492069FBF733FFFCF7E0
:104F9800F7F80246C31787490220FCF7A9FF8149A1
:104FA8006069FBF727FFFCF7EBF80246C317824955
:104FB8000220FCF79DFF7B49A069FBF71BFFFCF76C
:104FC800DFF80246C3177D490220FCF791FF227FD4
:104FD80000237B492846FCF78BFF7249206AFBF7C0
:104FE80009FFFCF7CDF80246C31776490220FCF703
:104FF8007FFF6C49606AFBF7FDFEFCF7C1F80246CB
:10500800C31771492846FCF773FF94F8282000233A
:105018006E492846FCF76CFF6249E06AFBF7EAFE36
:10502800FCF7AEF80246C31769490220FCF760FF97
:105038005C49206BFBF7DEFEFCF7A2F80246C317BB
:1050480064492846FCF754FF94F834200023624949
:105058002846FCF74DFF94F8352000235F49284681
:10506800FCF746FF94F8362000235D492846FCF7F4
:105078003FFF94F8372000235A492846FCF738FFA9
:1050880094F83820002358492846FCF731FF57493F
:10509800E06BFBF7AFFEFCF773F80246C317544901
:1050A8000220FCF725FF5149206CFBF7A3FEFCF713
:1050B80067F80246C3174F490220FCF719FF394920
:1050C800606CFBF797FEFCF75BF80246C3174A498A
:1050D8000220FCF70DFF3349A06CFBF78BFEFCF7B1
:1050E8004FF80246C31745490220FCF701FF94F820
:1050F8004C20002342492846FCF7FAFE2949206D36
:10510800FBF778FEFCF73CF80246C3173D4902203E
:10511800FCF7EEFE2349A06DFBF76CFEFCF730F8B8
:105128000246C31738490220FCF7E2FE1D49606DAC
:10513800FBF760FEFCF724F80246C3173349022048
:10514800FCF7D6FE94F85C20002331492846FCF78A
:10515800CFFE94F85D2000232E492846FCF7C8FEB0
:105168001049606EFBF746FEFCF70AF80246C317C3
:1051780029490220FCF7BCFE0A49206EFBF73AFEDB
:10518800FBF7FEFF0246C31724490220FCF7B0FED6
:10519800FCF76EFE07B030BD00FC0308602000205D
:1051A80008FC030800007A4410FC030818FC0308F4
:1051B80020FC030828FC030830FC030838FC03081B
:1051C80040FC030848FC030850FC030858FC03088B
:1051D80060FC030868FC030870FC030878FC0308FB
:1051E80080FC030888FC030890FC030800401C4668
:1051F80098FC0308A0FC0308A8FC0308B0FC0308FB
:10520800B8FC0308C0FC0308C8FC0308D0FC03086A
:10521800D8FC0308E0FC0308E8FC0308F0FC0308DA
:1052280010B57C4B1B78DBB27B4A1370992B39D0B5
:105238007A4B00221A704FF0804159600021996022
:10524800D960774818615961764C9C6101241C77B4
:1052580018627548586283F82840D96218633C2060
:1052680083F83400182083F8350083F836200A20A4
:1052780083F8370083F838204FF07E50D8631864DD
:105288005864986483F84C4019656848986568497B
:10529800596583F85C2083F85D2058661966FFF726
:1052A80031FE10BD5B4B1A785B4B1A70614B1B7853
:1052B8005A4C2370604B1868FBF748FD5F49FBF7B1
:1052C8004DFE60605E4B1868FBF740FD5B49FBF7DD
:1052D80045FEA0605B4B1868FBF738FD5749FBF7A4
:1052E8003DFEE060584B1868FBF730FD5349FBF76B
:1052F80035FE2061554B1868FBF728FD4F49FBF731
:105308002DFE6061524B1868FBF720FD4B49FBF7F7
:1053180025FEA0614F4B1B7823774F4B1868FBF78E
:1053280015FD4649FBF71AFE20624C4B1878FBF72F
:1053380009FD4249FBF712FE6062494B1B7884F86D
:105348002830484B1868FBF701FD3C49FBF706FE7F
:10535800E062454B1878FBF7F5FC3849FBF7FEFD92
:105368002063424B1B7884F83430414B1B7884F817
:105378003530404B1B7884F836303F4B1B7884F827
:1053880037303E4B1B7884F838303D4B1868FBF7B4
:10539800DDFC3C49FBF7E2FDE0633B4B1868FBF79B
:1053A800D5FC3849FBF7DAFD2064384B1868FBF761
:1053B800CDFC2249FBF7D2FD6064354B1868FBF73A
:1053C800C5FC1E49FBF7CAFDA064324B1B7884F864
:1053D8004C30314B1868FBF7B9FC1849FBF7BEFD98
:1053E80020652E4B1868FBF7B1FC1449FBF7B6FD96
:1053F800A0652B4B1868FBF7A9FC1049FBF7AEFD1D
:105408006065284B1B7884F85C30274B1B7884F840
:105418005D3046E700FC0308480C002060200020AF
:1054280000504348CDCCC742CDCCCC3D00C07945D7
:105438000080404408FC030810FC030800007A447C
:1054480018FC030820FC030828FC030830FC0308A8
:1054580038FC030840FC030848FC030850FC030818
:1054680058FC030860FC030868FC030870FC030888
:1054780078FC030880FC030888FC030890FC0308F8
:1054880098FC030800401C46A0FC0308A8FC03087D
:10549800B0FC0308B8FC0308C0FC0308C8FC0308F8
:1054A800D0FC0308D8FC0308E0FC0308F8B5044660
:1054B800012802D0022C49D0F8BD384D5F23EB718A
:1054C800374E4FF6FF730D2229463046FEF75CF93A
:1054D800344B00221A704FF08041596000219960C6
:1054E800D960314F1F6159613048986101201877A0
:1054F8001F622F4F5F6283F82800D9621F633C2127
:1055080083F83410182183F8351083F836200A21DF
:1055180083F8371083F8382083F84C0083F85C2030
:1055280083F85D204FF4FA70FBF7B8FEFFF7EAFC4A
:105538004FF4FA70FBF7B2FE6123EB714FF6FF737D
:105548000D2229463046FEF71FF9B3E7134C6023B6
:10555800E371134D4FF6FF730D2221462846FEF7DF
:1055680013F9104B4FF07E52DA631A645A649A6446
:1055780000221A654FF4FA70FBF790FEFFF7C2FCA1
:105588004FF4FA70FBF78AFE6123E3714FF6FF735D
:105598000D2221462846FEF7F7F88DE74400002043
:1055A800642100206020002000504348CDCCC74231
:1055B800CDCCCC3D000000002DE9F04FBBB0AF4C86
:1055C80036AD04F11C030FCB07C52B7032AD04F1C7
:1055D8002C030FCB07C52B702EAD04F13C030FCB6A
:1055E80007C52B702AAD04F14C030FCB07C52B70F0
:1055F80026AD04F15C030FCB07C52B7022AD04F177
:105608006C030FCB07C52B701EAD04F17C030FCBC9
:1056180007C52B701AAD04F18C030FCB07C52B708F
:1056280016AD04F19C030FCB07C52B7012AD04F126
:10563800AC030FCB07C52B700EAD04F1BC030FCB29
:1056480007C52B700AAD04F1CC030FCB07C52B702F
:1056580006AD04F1DC030FCB07C52B7002ADEC34AB
:1056680094E80F0007C52B70854B1C684FF08341E9
:105678002046FBF7BFFB0746824B1E69D9683046B8
:10568800FBF7AEFA054601463846FBF767FC7E494C
:10569800FBF7A8FA07464FF083413046FBF7AAFB11
:1056A8002946FBF75BFC01463846FBF799FA814629
:1056B8004FF08141FBF73CFD08B14FF08149724939
:1056C8004846FBF753FD08B1DFF8BC916D4B1B78DA
:1056D800012B14D023B1022B7ED00023019312E0BA
:1056E8006A492046FBF724FD00287AD11C238DF84F
:1056F8004F3067492046FBF731FC019003E01D233A
:105708008DF84F3001946249019D2846FBF724FD2E
:10571800002868D09C238DF8CB3001238DF8BA304F
:1057280019238DF8BB30E3238DF8AB305849284650
:10573800FBF714FCFBF74AFD5FFA80F84FF47A7028
:1057480000FB08F0FBF702FB01462846FBF748FA86
:1057580006465049FBF702FCFBF738FD5FFA80FA72
:10576800642000FB0AF0FBF7F1FA01463046FBF72C
:1057780037FA06464849FBF7F1FBFBF727FDC7B2A6
:1057880007EB87035800FBF7E1FA01463046FBF7C1
:1057980027FAFBF71BFDC5B23A4BDE6A31462046B5
:1057A800FBF7E4FC002800F03381364B196A2046E9
:1057B800FBF7BEFC002800F02B81384B5B68002B00
:1057C80040F02681364B3122DA7501245C77334B61
:1057D80000221A725A7245E154238DF84F30019411
:1057E80091E701948FE72B49019D2846FBF7B4FC0C
:1057F800002857D026492846FBF79AFC002851D0A4
:1058080001238DF8BA3019238DF8BB30D7238DF8D2
:10581800AB3020492846FBF7A1FBFBF7D7FC5FFA22
:1058280080F8642000FB08F0FBF790FA0146284650
:10583800FBF7D6F906461849FBF790FBFBF7C6FCC1
:105848005FFA80FA0AEB8A035800FBF77FFA0146F1
:105858003046FBF7C5F90646FBF7B8FCC7B2384631
:10586800FBF774FA01463046FBF7BAF90A49FBF729
:10587800C1FAFBF7ABFCC5B28EE700BF8003010895
:10588800A8120020602000200000A0410000FA4477
:1058980000007A440000C84200002041480C002063
:1058A800440000205649019D2846FBF741FC00288A
:1058B80044D054492846FBF74FFC00283ED05149B4
:1058C8002846FBF74BFBFBF781FC5FFA80F808EBF7
:1058D80088035800FBF73AFA01462846FBF780F997
:1058E8000646FBF773FC5FFA80FA5046FBF72EFA80
:1058F80001463046FBF774F906464249FBF77AFA47
:10590800FBF764FCC7B23046FAF7EEFD05460E46D3
:105918003846FAF7D7FD36A3D3E90023FAF73CFE59
:1059280002460B4628463146FAF77EFC0022364BE3
:10593800FAF732FEFBF7E0F8C5B22DE73149019DD1
:105948002846FBF7F5FB00284BD0AD238DF8CB306C
:1059580096238DF8BB302846FBF738FC5FFA80F8B1
:105968004046FBF7F3F901462846FBF739F90646A6
:105978002449FBF73FFAFBF729FC5FFA80FA304627
:10598800FAF7B2FD06460F465046FAF79BFD18A3F4
:10599800D3E90023FAF700FE02460B4630463946A3
:1059A800FAF742FC05460E460022174BFAF7F4FDBB
:1059B800FBF7A2F8C7B23846FAF784FD0EA3D3E97D
:1059C8000023FAF7E9FD02460B4628463146FAF766
:1059D8002BFC00220D4BFAF7DFFDFBF78DF8C5B263
:1059E800DAE600252F46AA46A846D5E6AFF300809A
:1059F8009A9999999999B93F7B14AE47E17A843F6E
:105A08000000C842000020410000594000408F407B
:105A180031462046FBF796FB40B19F4B5B682BB99C
:105A28009E4B93F82830012B00F00D819B4B196A8F
:105A38002046FBF791FB38B1974B5B6823B9974B2E
:105A48001B7F012B00F00981934B5B68002B00F052
:105A58001381934B2E22DA7501245C778E4B00223A
:105A68001A725A728F494846FBF778FAFBF7AEFB71
:105A7800C6B206EB86035800FBF768F901464846AC
:105A8800FBF7AEF88346FBF7A1FB5FFA80F94846BF
:105A9800FBF75CF901465846FBF7A2F88149FBF78A
:105AA800A9F9FBF793FB5FFA80FBB8F1000F06D169
:105AB8007C490198FBF73CFB002800F0DF80A044FC
:105AC8008DF8DF80002E00F0DD801F368DF83F60F6
